{
  "contractName": "ProductManagement",
  "abi": [
    {
      "constant": true,
      "inputs": [],
      "name": "parts_cnt",
      "outputs": [
        {
          "name": "",
          "type": "uint256"
        }
      ],
      "payable": false,
      "stateMutability": "view",
      "type": "function"
    },
    {
      "constant": true,
      "inputs": [],
      "name": "products_cnt",
      "outputs": [
        {
          "name": "",
          "type": "uint256"
        }
      ],
      "payable": false,
      "stateMutability": "view",
      "type": "function"
    },
    {
      "constant": true,
      "inputs": [
        {
          "name": "",
          "type": "bytes32"
        }
      ],
      "name": "products",
      "outputs": [
        {
          "name": "manufacturer",
          "type": "address"
        },
        {
          "name": "serial_number",
          "type": "string"
        },
        {
          "name": "product_type",
          "type": "string"
        },
        {
          "name": "creation_date",
          "type": "string"
        }
      ],
      "payable": false,
      "stateMutability": "view",
      "type": "function"
    },
    {
      "constant": true,
      "inputs": [
        {
          "name": "",
          "type": "bytes32"
        }
      ],
      "name": "parts",
      "outputs": [
        {
          "name": "manufacturer",
          "type": "address"
        },
        {
          "name": "serial_number",
          "type": "string"
        },
        {
          "name": "part_type",
          "type": "string"
        },
        {
          "name": "creation_date",
          "type": "string"
        }
      ],
      "payable": false,
      "stateMutability": "view",
      "type": "function"
    },
    {
      "constant": true,
      "inputs": [
        {
          "name": "",
          "type": "uint256"
        }
      ],
      "name": "parts_list",
      "outputs": [
        {
          "name": "",
          "type": "bytes32"
        }
      ],
      "payable": false,
      "stateMutability": "view",
      "type": "function"
    },
    {
      "constant": true,
      "inputs": [
        {
          "name": "",
          "type": "uint256"
        }
      ],
      "name": "products_list",
      "outputs": [
        {
          "name": "",
          "type": "bytes32"
        }
      ],
      "payable": false,
      "stateMutability": "view",
      "type": "function"
    },
    {
      "inputs": [],
      "payable": false,
      "stateMutability": "nonpayable",
      "type": "constructor"
    },
    {
      "anonymous": false,
      "inputs": [
        {
          "indexed": false,
          "name": "part_hash",
          "type": "bytes32"
        }
      ],
      "name": "parthash",
      "type": "event"
    },
    {
      "constant": false,
      "inputs": [
        {
          "name": "serial_number",
          "type": "string"
        },
        {
          "name": "part_type",
          "type": "string"
        },
        {
          "name": "creation_date",
          "type": "string"
        }
      ],
      "name": "buildPart",
      "outputs": [],
      "payable": false,
      "stateMutability": "nonpayable",
      "type": "function"
    },
    {
      "constant": false,
      "inputs": [
        {
          "name": "serial_number",
          "type": "string"
        },
        {
          "name": "product_type",
          "type": "string"
        },
        {
          "name": "creation_date",
          "type": "string"
        },
        {
          "name": "part_array",
          "type": "bytes32[6]"
        }
      ],
      "name": "buildProduct",
      "outputs": [
        {
          "name": "",
          "type": "bytes32"
        }
      ],
      "payable": false,
      "stateMutability": "nonpayable",
      "type": "function"
    },
    {
      "constant": false,
      "inputs": [
        {
          "name": "product_hash",
          "type": "bytes32"
        }
      ],
      "name": "getParts",
      "outputs": [
        {
          "name": "",
          "type": "bytes32[6]"
        }
      ],
      "payable": false,
      "stateMutability": "nonpayable",
      "type": "function"
    },
    {
      "constant": true,
      "inputs": [
        {
          "name": "parthasha",
          "type": "bytes32"
        }
      ],
      "name": "getPart",
      "outputs": [
        {
          "name": "",
          "type": "string"
        }
      ],
      "payable": false,
      "stateMutability": "view",
      "type": "function"
    }
  ],
  "bytecode": "0x60806040526000600455600060055534801561001a57600080fd5b50611b918061002a6000396000f3fe60806040526004361061009e576000357c01000000000000000000000000000000000000000000000000000000009004806368afadb3146100a35780636e730329146100ce57806371eca8e81461014557806372dcc58b146101f957806379054391146102245780638c431b9f146103e3578063b9c2dc3a146105a2578063d2af2aec14610798578063dbe9248d146109e4578063f7aed77314610a33575b600080fd5b3480156100af57600080fd5b506100b8610a82565b6040518082815260200191505060405180910390f35b3480156100da57600080fd5b50610107600480360360208110156100f157600080fd5b8101908080359060200190929190505050610a88565b6040518082600660200280838360005b83811015610132578082015181840152602081019050610117565b5050505090500191505060405180910390f35b34801561015157600080fd5b5061017e6004803603602081101561016857600080fd5b8101908080359060200190929190505050610bc4565b6040518080602001828103825283818151815260200191508051906020019080838360005b838110156101be5780820151818401526020810190506101a3565b50505050905090810190601f1680156101eb5780820380516001836020036101000a031916815260200191505b509250505060405180910390f35b34801561020557600080fd5b5061020e610c7b565b6040518082815260200191505060405180910390f35b34801561023057600080fd5b5061025d6004803603602081101561024757600080fd5b8101908080359060200190929190505050610c81565b604051808573ffffffffffffffffffffffffffffffffffffffff1673ffffffffffffffffffffffffffffffffffffffff168152602001806020018060200180602001848103845287818151815260200191508051906020019080838360005b838110156102d75780820151818401526020810190506102bc565b50505050905090810190601f1680156103045780820380516001836020036101000a031916815260200191505b50848103835286818151815260200191508051906020019080838360005b8381101561033d578082015181840152602081019050610322565b50505050905090810190601f16801561036a5780820380516001836020036101000a031916815260200191505b50848103825285818151815260200191508051906020019080838360005b838110156103a3578082015181840152602081019050610388565b50505050905090810190601f1680156103d05780820380516001836020036101000a031916815260200191505b5097505050505050505060405180910390f35b3480156103ef57600080fd5b5061041c6004803603602081101561040657600080fd5b8101908080359060200190929190505050610e99565b604051808573ffffffffffffffffffffffffffffffffffffffff1673ffffffffffffffffffffffffffffffffffffffff168152602001806020018060200180602001848103845287818151815260200191508051906020019080838360005b8381101561049657808201518184015260208101905061047b565b50505050905090810190601f1680156104c35780820380516001836020036101000a031916815260200191505b50848103835286818151815260200191508051906020019080838360005b838110156104fc5780820151818401526020810190506104e1565b50505050905090810190601f1680156105295780820380516001836020036101000a031916815260200191505b50848103825285818151815260200191508051906020019080838360005b83811015610562578082015181840152602081019050610547565b50505050905090810190601f16801561058f5780820380516001836020036101000a031916815260200191505b5097505050505050505060405180910390f35b3480156105ae57600080fd5b50610796600480360360608110156105c557600080fd5b81019080803590602001906401000000008111156105e257600080fd5b8201836020820111156105f457600080fd5b8035906020019184600183028401116401000000008311171561061657600080fd5b91908080601f016020809104026020016040519081016040528093929190818152602001838380828437600081840152601f19601f8201169050808301925050505050505091929192908035906020019064010000000081111561067957600080fd5b82018360208201111561068b57600080fd5b803590602001918460018302840111640100000000831117156106ad57600080fd5b91908080601f016020809104026020016040519081016040528093929190818152602001838380828437600081840152601f19601f8201169050808301925050505050505091929192908035906020019064010000000081111561071057600080fd5b82018360208201111561072257600080fd5b8035906020019184600183028401116401000000008311171561074457600080fd5b91908080601f016020809104026020016040519081016040528093929190818152602001838380828437600081840152601f19601f8201169050808301925050505050505091929192905050506110b1565b005b3480156107a457600080fd5b506109ce60048036036101208110156107bc57600080fd5b81019080803590602001906401000000008111156107d957600080fd5b8201836020820111156107eb57600080fd5b8035906020019184600183028401116401000000008311171561080d57600080fd5b91908080601f016020809104026020016040519081016040528093929190818152602001838380828437600081840152601f19601f8201169050808301925050505050505091929192908035906020019064010000000081111561087057600080fd5b82018360208201111561088257600080fd5b803590602001918460018302840111640100000000831117156108a457600080fd5b91908080601f016020809104026020016040519081016040528093929190818152602001838380828437600081840152601f19601f8201169050808301925050505050505091929192908035906020019064010000000081111561090757600080fd5b82018360208201111561091957600080fd5b8035906020019184600183028401116401000000008311171561093b57600080fd5b91908080601f016020809104026020016040519081016040528093929190818152602001838380828437600081840152601f19601f8201169050808301925050505050505091929192908060c001906006806020026040519081016040528092919082600660200280828437600081840152601f19601f82011690508083019250505050505091929192905050506112f9565b6040518082815260200191505060405180910390f35b3480156109f057600080fd5b50610a1d60048036036020811015610a0757600080fd5b8101908080359060200190929190505050611610565b6040518082815260200191505060405180910390f35b348015610a3f57600080fd5b50610a6c60048036036020811015610a5657600080fd5b8101908080359060200190929190505050611628565b6040518082815260200191505060405180910390f35b60045481565b610a90611989565b600073ffffffffffffffffffffffffffffffffffffffff166002600084815260200190815260200160002060000160009054906101000a900473ffffffffffffffffffffffffffffffffffffffff1673ffffffffffffffffffffffffffffffffffffffff1614151515610b6b576040517f08c379a00000000000000000000000000000000000000000000000000000000081526004018080602001828103825260128152602001807f50726f6475637420696e6578697374656e74000000000000000000000000000081525060200191505060405180910390fd5b60026000838152602001908152602001600020600401600680602002604051908101604052809291908260068015610bb8576020028201915b815481526020019060010190808311610ba4575b50505050509050919050565b60606000808381526020019081526020016000206002018054600181600116156101000203166002900480601f016020809104026020016040519081016040528092919081815260200182805460018160011615610100020316600290048015610c6f5780601f10610c4457610100808354040283529160200191610c6f565b820191906000526020600020905b815481529060010190602001808311610c5257829003601f168201915b50505050509050919050565b60055481565b60026020528060005260406000206000915090508060000160009054906101000a900473ffffffffffffffffffffffffffffffffffffffff1690806001018054600181600116156101000203166002900480601f016020809104026020016040519081016040528092919081815260200182805460018160011615610100020316600290048015610d535780601f10610d2857610100808354040283529160200191610d53565b820191906000526020600020905b815481529060010190602001808311610d3657829003601f168201915b505050505090806002018054600181600116156101000203166002900480601f016020809104026020016040519081016040528092919081815260200182805460018160011615610100020316600290048015610df15780601f10610dc657610100808354040283529160200191610df1565b820191906000526020600020905b815481529060010190602001808311610dd457829003601f168201915b505050505090806003018054600181600116156101000203166002900480601f016020809104026020016040519081016040528092919081815260200182805460018160011615610100020316600290048015610e8f5780601f10610e6457610100808354040283529160200191610e8f565b820191906000526020600020905b815481529060010190602001808311610e7257829003601f168201915b5050505050905084565b60006020528060005260406000206000915090508060000160009054906101000a900473ffffffffffffffffffffffffffffffffffffffff1690806001018054600181600116156101000203166002900480601f016020809104026020016040519081016040528092919081815260200182805460018160011615610100020316600290048015610f6b5780601f10610f4057610100808354040283529160200191610f6b565b820191906000526020600020905b815481529060010190602001808311610f4e57829003601f168201915b505050505090806002018054600181600116156101000203166002900480601f0160208091040260200160405190810160405280929190818152602001828054600181600116156101000203166002900480156110095780601f10610fde57610100808354040283529160200191611009565b820191906000526020600020905b815481529060010190602001808311610fec57829003601f168201915b505050505090806003018054600181600116156101000203166002900480601f0160208091040260200160405190810160405280929190818152602001828054600181600116156101000203166002900480156110a75780601f1061107c576101008083540402835291602001916110a7565b820191906000526020600020905b81548152906001019060200180831161108a57829003601f168201915b5050505050905084565b60006110bf33858585611640565b90507fa4b466856b0455c2dfb84d2dc80f8eef9db11bed2c72423985a41a16bbb9a8db816040518082815260200191505060405180910390a1600073ffffffffffffffffffffffffffffffffffffffff1660008083815260200190815260200160002060000160009054906101000a900473ffffffffffffffffffffffffffffffffffffffff1673ffffffffffffffffffffffffffffffffffffffff161415156111d1576040517f08c379a00000000000000000000000000000000000000000000000000000000081526004018080602001828103825260148152602001807f5061727420494420616c7265616479207573656400000000000000000000000081525060200191505060405180910390fd5b6111d96119ac565b6080604051908101604052803373ffffffffffffffffffffffffffffffffffffffff1681526020018681526020018581526020018481525090508060008084815260200190815260200160002060008201518160000160006101000a81548173ffffffffffffffffffffffffffffffffffffffff021916908373ffffffffffffffffffffffffffffffffffffffff16021790555060208201518160010190805190602001906112899291906119eb565b5060408201518160020190805190602001906112a69291906119eb565b5060608201518160030190805190602001906112c39291906119eb565b50905050816001600060045481526020019081526020016000208190555060016004600082825401925050819055505050505050565b600080600090505b600681101561140357600073ffffffffffffffffffffffffffffffffffffffff16600080858460068110151561133357fe5b6020020151815260200190815260200160002060000160009054906101000a900473ffffffffffffffffffffffffffffffffffffffff1673ffffffffffffffffffffffffffffffffffffffff16141515156113f6576040517f08c379a000000000000000000000000000000000000000000000000000000000815260040180806020018281038252601f8152602001807f496e6578697374656e7420706172742075736564206f6e2070726f647563740081525060200191505060405180910390fd5b8080600101915050611301565b600061141133888888611640565b9050600073ffffffffffffffffffffffffffffffffffffffff166002600083815260200190815260200160002060000160009054906101000a900473ffffffffffffffffffffffffffffffffffffffff1673ffffffffffffffffffffffffffffffffffffffff161415156114ed576040517f08c379a00000000000000000000000000000000000000000000000000000000081526004018080602001828103825260178152602001807f50726f6475637420494420616c7265616479207573656400000000000000000081525060200191505060405180910390fd5b6114f5611a6b565b60a0604051908101604052803373ffffffffffffffffffffffffffffffffffffffff168152602001898152602001888152602001878152602001868152509050806002600084815260200190815260200160002060008201518160000160006101000a81548173ffffffffffffffffffffffffffffffffffffffff021916908373ffffffffffffffffffffffffffffffffffffffff16021790555060208201518160010190805190602001906115ac9291906119eb565b5060408201518160020190805190602001906115c99291906119eb565b5060608201518160030190805190602001906115e69291906119eb565b506080820151816004019060066115fe929190611ab8565b50905050819350505050949350505050565b60016020528060005260406000206000915090505481565b60036020528060005260406000206000915090505481565b600080856c010000000000000000000000000290506060859050606085905060608590506060815183518551601460ff160101016040519080825280601f01601f1916602001820160405280156116a65781602001600182028038833980820191505090505b5090506060819050600080905060008090505b601460ff168110156117475787816014811015156116d357fe5b1a7f010000000000000000000000000000000000000000000000000000000000000002838380600101945081518110151561170a57fe5b9060200101907effffffffffffffffffffffffffffffffffffffffffffffffffffffffffffff1916908160001a90535080806001019150506116b9565b600090505b86518110156117ff57868181518110151561176357fe5b9060200101517f010000000000000000000000000000000000000000000000000000000000000090047f01000000000000000000000000000000000000000000000000000000000000000283838060010194508151811015156117c257fe5b9060200101907effffffffffffffffffffffffffffffffffffffffffffffffffffffffffffff1916908160001a905350808060010191505061174c565b600090505b85518110156118b757858181518110151561181b57fe5b9060200101517f010000000000000000000000000000000000000000000000000000000000000090047f010000000000000000000000000000000000000000000000000000000000000002838380600101945081518110151561187a57fe5b9060200101907effffffffffffffffffffffffffffffffffffffffffffffffffffffffffffff1916908160001a9053508080600101915050611804565b600090505b845181101561196f5784818151811015156118d357fe5b9060200101517f010000000000000000000000000000000000000000000000000000000000000090047f010000000000000000000000000000000000000000000000000000000000000002838380600101945081518110151561193257fe5b9060200101907effffffffffffffffffffffffffffffffffffffffffffffffffffffffffffff1916908160001a90535080806001019150506118bc565b828051906020012098505050505050505050949350505050565b60c060405190810160405280600690602082028038833980820191505090505090565b608060405190810160405280600073ffffffffffffffffffffffffffffffffffffffff1681526020016060815260200160608152602001606081525090565b828054600181600116156101000203166002900490600052602060002090601f016020900481019282601f10611a2c57805160ff1916838001178555611a5a565b82800160010185558215611a5a579182015b82811115611a59578251825591602001919060010190611a3e565b5b509050611a679190611af8565b5090565b61014060405190810160405280600073ffffffffffffffffffffffffffffffffffffffff168152602001606081526020016060815260200160608152602001611ab2611b1d565b81525090565b8260068101928215611ae7579160200282015b82811115611ae6578251825591602001919060010190611acb565b5b509050611af49190611b40565b5090565b611b1a91905b80821115611b16576000816000905550600101611afe565b5090565b90565b60c060405190810160405280600690602082028038833980820191505090505090565b611b6291905b80821115611b5e576000816000905550600101611b46565b5090565b9056fea165627a7a72305820b1175456e17c077806c08e874a89b7a17d9bfccdb59a0bc30e40e9764d7d21110029",
  "source": "pragma solidity >=0.4.21 <0.6.0;\n\ncontract ProductManagement {\n    struct Part{\n        address manufacturer;\n        string serial_number;\n        string part_type;\n        string creation_date;\n    }\n\n    struct Product{\n        address manufacturer;\n        string serial_number;\n        string product_type;\n        string creation_date;\n        bytes32[6] parts;\n    }\n\n    mapping(bytes32 => Part) public parts;\n    mapping(uint => bytes32) public parts_list;\n    mapping(bytes32 => Product) public products;\n    mapping(uint => bytes32) public products_list;\n\n    uint public parts_cnt = 0;\n    uint public products_cnt = 0;\n\n    constructor() public {\n    }\n\n    function concatenateInfoAndHash(address a1, string memory s1, string memory s2, string memory s3) private returns (bytes32){\n        //First, get all values as bytes\n        bytes20 b_a1 = bytes20(a1);\n        bytes memory b_s1 = bytes(s1);\n        bytes memory b_s2 = bytes(s2);\n        bytes memory b_s3 = bytes(s3);\n\n        //Then calculate and reserve a space for the full string\n        string memory s_full = new string(b_a1.length + b_s1.length + b_s2.length + b_s3.length);\n        bytes memory b_full = bytes(s_full);\n        uint j = 0;\n        uint i;\n        for(i = 0; i < b_a1.length; i++){\n            b_full[j++] = b_a1[i];\n        }\n        for(i = 0; i < b_s1.length; i++){\n            b_full[j++] = b_s1[i];\n        }\n        for(i = 0; i < b_s2.length; i++){\n            b_full[j++] = b_s2[i];\n        }\n        for(i = 0; i < b_s3.length; i++){\n            b_full[j++] = b_s3[i];\n        }\n\n        //Hash the result and return\n        return keccak256(b_full);\n    }\n\n\n    event parthash(bytes32 part_hash);\n\n    function buildPart(string memory serial_number, string memory part_type, string memory creation_date) public {\n        //Create hash for data and check if it exists. If it doesn't, create the part and return the ID to the user\n        bytes32 part_hash = concatenateInfoAndHash(msg.sender, serial_number, part_type, creation_date);\n        emit parthash(part_hash);\n\n        require(parts[part_hash].manufacturer == address(0), \"Part ID already used\");\n\n        Part memory new_part = Part(msg.sender, serial_number, part_type, creation_date);\n        parts[part_hash] = new_part;\n        parts_list[parts_cnt] = part_hash;\n        parts_cnt +=1;\n    }\n\n    function buildProduct(string memory serial_number, string memory product_type, string memory creation_date, bytes32[6] memory part_array) public returns (bytes32){\n        //Check if all the parts exist, hash values and add to product mapping.\n        uint i;\n        for(i = 0;i < part_array.length; i++){\n            require(parts[part_array[i]].manufacturer != address(0), \"Inexistent part used on product\");\n        }\n\n        //Create hash for data and check if exists. If it doesn't, create the part and return the ID to the user\n        bytes32 product_hash = concatenateInfoAndHash(msg.sender, serial_number, product_type, creation_date);\n        \n        require(products[product_hash].manufacturer == address(0), \"Product ID already used\");\n\n        Product memory new_product = Product(msg.sender, serial_number, product_type, creation_date, part_array);\n        products[product_hash] = new_product;\n        return product_hash;\n    }\n\n    function getParts(bytes32 product_hash) public returns (bytes32[6] memory){\n        //The automatic getter does not return arrays, so lets create a function for that\n        require(products[product_hash].manufacturer != address(0), \"Product inexistent\");\n        return products[product_hash].parts;\n    }\n\n    // function getPart(bytes32 part_hash) public returns (address, string , string , string ){\n    //     address add = parts[part_hash].manufacturer;\n    //     string serial = parts[part_hash].serial_number;\n    //     string types = parts[part_hash].product_type;\n    //     string date = parts[part_hash].creation_date;\n\n    //     return add,serial,types,date\n    // }\n\n     function getPart(bytes32 parthasha) public view returns(string memory){\n        return parts[parthasha].part_type;\n\n    }\n}\n",
  "sourcePath": "/Users/bryant/SAB-ethereum-supply-chain/contracts/ProductManagement.sol",
  "compiler": {
    "name": "solc",
    "version": "0.5.1+commit.c8a2cb62.Emscripten.clang"
  },
  "schemaVersion": "3.4.11",
  "updatedAt": "2022-11-30T02:25:55.174Z",
  "networkType": "ethereum",
  "devdoc": {
    "methods": {}
  },
  "userdoc": {
    "methods": {}
  }
}